:020000040800F2
:10000000D84701208102000845460008D93700087A
:1000100041460008891900085D61000800000000E1
:10002000000000000000000000000000C101000806
:1000300021320008000000001D020008655700087A
:100040009B0200089B0200089B0200089B0200081C
:100050009B0200089B0200089B0200089B0200080C
:100060009B0200089B0200089B0200089B020008FC
:100070009B0200089B0200089B0200089B020008EC
:100080009B0200089B0200089B0200089B020008DC
:10009000511B00089B0200089B0200089B020008FD
:1000A0009B0200089B0200089B0200089B020008BC
:1000B0009B0200089B0200089B0200089B020008AC
:1000C0009B0200089B0200089B0200089B0200089C
:1000D0009B0200084D5A0008D55B0008BD5C000873
:1000E0009B0200089B0200089B0200089B0200087C
:1000F0009B0200089B0200089B0200089B0200086C
:100100009B0200089B0200089B0200089B0200085B
:100110009B0200089B02000889580008C958000883
:100120009B0200089B0200089B0200089B0200083B
:100130009B0200089B0200089B0200089B0200082B
:10014000951C00089B0200089B0200089B02000807
:100150009B0200089B0200089B020008195D000832
:100160009B0200089B0200089B0200089B020008FB
:100170009B0200089B0200089B0200089B020008EB
:100180009B0200089B0200089B0200089B020008DB
:100190009B0200089B0200089B0200089B020008CB
:1001A00000000000000000009B020008DFF80CD0F7
:1001B00000F01EFB00480047E16F0008D84701200F
:1001C0002C4B19680868B0E8F04F80F30988BFF33A
:1001D0006F8F4FF0000080F311887047000000001F
:1001E00008480068006880F308884FF0000080F33A
:1001F000148862B661B6BFF34F8FBFF36F8F00DF15
:1002000000BF00BF08ED00E0DFF80C00016841F41A
:1002100070010160704700BF88ED00E0EFF30980D6
:10022000BFF36F8F134B1A681EF0100F08BF20ED3D
:10023000108A20E9F04F106009B44FF0500080F3AD
:100240001188BFF34F8FBFF36F8F08F0AFFA4FF0F5
:10025000000080F3118809BC19680868B0E8F04F05
:100260001EF0100F08BFB0EC108A80F30988BFF3AE
:100270006F8F7047A4000020EFF3058070470000E7
:100280000648804706480047FEE7FEE7FEE7FEE730
:10029000FEE7FEE7FEE7FEE7FEE7FEE7755700082C
:1002A000AD01000840EA01039B0703D009E008C93B
:1002B000121F08C0042AFAD203E011F8013B00F82B
:1002C000013B521EF9D27047D2B201E000F8012B77
:1002D000491EFBD270470022F6E710B513460A46C6
:1002E00004461946FFF7F0FF204610BD30B504461E
:1002F0000020034600E05B1C934203D2E05CCD5C2F
:10030000401BF8D030BD034611F8012B00F8012B3B
:10031000002AF9D1184670472DE9FE4F804681EA40
:100320000300C00F0C46009021F0004123F000456F
:10033000B8EB0200A94105D24046214690461C4632
:100340000B46024623F00040104347D0270DC7F369
:100350000A00C3F30A510290401A019040286BDA58
:10036000C3F3130040F4801B0098924620B1002391
:10037000D2EB030A63EB0B0B01985946C0F1400224
:10038000504600F011F906460D4650465946019A6E
:1003900000F019F910EB08006141002487EA1152BE
:1003A00084EAE7731A4340D0009A62B3019A012AA3
:1003B0004FEA075215DC001B61EB02014FF00042CF
:1003C00002EA0752CDE90042001C41F58011324695
:1003D0002B4600F050F903B0BDE8F08F40462146AF
:1003E000F9E7001B61EB0201001C41F580130018C6
:1003F0005B412018A2F5001747EB030140EAD570D6
:10040000B6196D4111E06D084FEA360645EAC07530
:100410004FEA0752001B61EB0201001C41F58011FD
:1004200049084FEA30000019514132462B4603B0CB
:10043000BDE8F04F00F010B9009801224000002301
:10044000D0EB020263EBE073009821464FEAE074C0
:10045000B8EB000061EB0401E9E783F000435BE7E0
:1004600081F0004158E72DE9FE4F81EA030404F0D2
:10047000004421F0004100944FF0000B23F00043B2
:1004800050EA01045ED052EA03045BD0C3F30A547D
:10049000C1F30A552C44A4F2F3340194A0FB025496
:1004A000C1F3130141F48011C3F3130343F4801328
:1004B00001FB024400FB034E840A970A44EA81547C
:1004C00047EA8357A4FB076802958D0A05FB078559
:1004D0004FEA932C04FB0C542705029D4FEA065863
:1004E00047EA1637B5EB08056EEB070C870E920E40
:1004F00047EA811742EA8312A7FB0201B6EB0B0120
:1005000064EB00042B0D43EA0C335E1844EB1C50E3
:10051000DA465146E7FB0201C5F313044FEA0B33F9
:1005200043EA14534FEA0432019C43EA0603A4F160
:100530000C040294009CCDE900B400F09CF803B0D8
:10054000BDE8F08F00200146F9E700F0004230F0EE
:1005500000400AD0C10D01F56071C0F3160042EAF7
:100560000151C208400711437047002001467047FF
:1005700001F0004330B421F0004150EA010206D0FE
:100580000A0DA2F56072C1F31301002A02DC30BC2F
:1005900000207047440F44EAC104C100E01830BC99
:1005A00000EBC25000F021B8202A04DB203A00FA08
:1005B00002F1002070479140C2F1200320FA03F3BA
:1005C000194390407047202A06DBCB17203A41FAA6
:1005D00002F043EAE07306E041FA02F3D040C2F1D0
:1005E000200291400843194670470029A8BF704770
:1005F000401C490008BF20F00100704710B4B0FA59
:1006000080FC00FA0CF050EA010404BF10BC7047F3
:1006100049B1CCF1200421FA04F411FA0CF118BF0D
:10062000012121430843A3EB0C01CB1D4FEA0061DC
:100630004FEA102042BF002010BC704700EBC350AF
:1006400010440029A4BF10BC7047401C490008BFDB
:1006500020F0010010BC704710B5141E73F10004A7
:1006600008DA401C41F1000192185B411A4301D1A4
:1006700020F0010010BD2DE9F04D92469B4611B1CE
:10068000B1FA81F202E0B0FA80F220329046FFF730
:100690008BFF04460F4640EA0A0041EA0B0153462D
:1006A0005A46084313D0114653EA010019D0C8F145
:1006B0004002504600F0AEF805460E4650465946F8
:1006C0004246FFF771FF084305D0012004E02046B1
:1006D0003946BDE8F08D0020054346EAE0762C431C
:1006E00037430A986305E40AA0EB08000022FD0ADC
:1006F00044EA47540A3002D500200146E9E70105E3
:1007000010196941DDE9084500196941BDE8F04D5E
:10071000A2E72DE9F04D81EA030404F0004B21F03B
:10072000004514464FF0000A23F0004150EA05024C
:1007300020D054EA01021DD0C5F30A570246C5F382
:100740001303C1F31300C1F30A5640F4801543F4B8
:100750008013A7EB0608101BD64608F2FD3873EB92
:10076000050002D308F1010801E092185B41B8F1DD
:10077000000F03DA00200146BDE8F08D00204FF4A1
:100780008011064684460EE0171B73EB050705D360
:10079000121B63EB050306434CEA010C49084FEAC0
:1007A000300092185B4150EA0107EDD152EA030094
:1007B00012D082EA040083EA0501084305D0101B29
:1007C000AB4106D20122002306E000224FF0004395
:1007D00002E06FF0010253101AEB06004CEB0851D7
:1007E00010EB0A0041EB0B01BDE8F04DFFF734BF01
:1007F000064C074D06E0E06840F0010394E807006E
:1008000098471034AC42F6D3FFF7D4FC389900086F
:1008100058990008202A04DB203A21FA02F000212E
:10082000704721FA02F3D040C2F120029140084300
:10083000194670470EB5C10F80EAE0700844CA0738
:10084000002140F233438DE80E000A460B46FFF7C5
:1008500012FF03B000BD0EB540F2334102910021FA
:10086000CDE900110A460B46FFF705FF03B000BDB6
:1008700070B5C1F30A5201F000450024C1F3130121
:1008800040F2FF3341F480119A4201DA002070BD3A
:1008900040F233439A42A2F2334203DC5242FFF762
:1008A000B9FF00E090402C43F1D0404270BD70B5DC
:1008B0008C1810F8015B15F0070301D110F8013B0B
:1008C0002A1106D110F8012B03E010F8016B01F892
:1008D000016B5B1EF9D12B0705D40023521E0DD4EA
:1008E00001F8013BFAE710F8013BCB1A921C03E038
:1008F00013F8015B01F8015B521EF9D5A142D8D370
:10090000002070BD70B505460C4600260DB1022CC6
:1009100000D870BDA11E06480288284602F00CFFD0
:100920000646A01E2E54310A601E295400BFF0E76F
:100930007C00002010B5324803F0ECFB30487C30DE
:1009400003F0E8FB00F03EFD00F000FE2C4890EDC7
:10095000030AB8EEC00A80ED050A90ED220AB8EE4F
:10096000C00A80ED240A4FF47A5211469FED251AF1
:10097000DFED250AB1EE000A1C3003F0D5FE40F68B
:10098000C41240F6B8319FED1F1ADFED1E0A9FED2D
:100990001E0A1B48483003F0C7FE4FF47A52114636
:1009A0009FED181ADFED180AB1EE000A14489830CE
:1009B00003F0BAFE40F6C41241F27C519FED111AC9
:1009C000DFED100A9FED100A0D48C43003F0ACFEB5
:1009D00001200B4981F83301084690ED470AB8EE33
:1009E000C00A80ED240A022081F8000102F094FB85
:1009F00040F602020121084602F096FB10BD0000FD
:100A00005C01002000000000CDCCCC3D3F4981F8C6
:100A10003401082876D2DFE800F075041624344447
:100A200054640121394A82F82811002182F8FF100C
:100A3000012182F8FA1082F8F91082F82E110021B3
:100A400082F829115FE00121304A82F8281182F8EA
:100A5000FD1082F8291182F82A11002182F82E1146
:100A600051E00121294A82F8281182F8FF1082F80A
:100A7000FA1082F8F910002182F8291182F82E115B
:100A800041E00021214A82F82F11114691F83011DE
:100A900031B9012182F8311182F8301182F8FD104C
:100AA00031E00221194A82F82F11114691F83011D4
:100AB00031B9012182F8311182F8301182F8FD102C
:100AC00021E00421114A82F82F11114691F83011CA
:100AD00031B9012182F8311182F8301182F8FD100C
:100AE00011E00621094A82F82F11114691F83011C0
:100AF00031B9012182F8311182F8301182F8FD10EC
:100B000001E0FFE700BF00BF704700005C0100206C
:100B100010B51C21012002F065FC00201849A1F845
:100B20002C01012081F8FD00002081F8FA0081F8F5
:100B3000FC0081F8F90081F8290181F82801A1F869
:100B40002C0181F8300181F82F0181F82E0108462F
:100B5000D0ED470AF8EEE00AB0EE600A00F0A6FD1C
:100B600058B10748D0ED410AF8EEE00AB0EE600A4D
:100B700000F0F0FD08B1012010BD0020FCE70000EE
:100B80005C0100200448B0F904000449884201DAFD
:100B9000012070470020FCE75C01002054F2FFFFB9
:100BA00000B57A4890F83001002872D0774890F963
:100BB0002F01082838D2DFE800F00438397273AB0F
:100BC000ACE5724890F8310170B37048D0ED470A37
:100BD000F8EEE00AB0EE600A00F068FD20B36B4862
:100BE00090F8FD0000B3694890F83201401C40B213
:100BF000664981F83201084690F93201052813DD73
:100C0000002081F8FF00012081F8FA0081F8F90046
:100C1000002081F8310181F83201084690F82F0157
:100C2000401C40B281F82F01ADE0ACE0574890F88D
:100C3000310168B35548D0ED470AF8EEE00AB0EE4E
:100C4000600A00F033FD28B3504890F8FD0008B367
:100C50004E4890F83201401C40B24C4981F83201B4
:100C6000084690F93201052818DD012081F8FF00BF
:100C700081F8FA0081F8F900002081F8310181F84B
:100C80003201084690F82F01401C40B281F82F0134
:100C900004E079E000203D4981F8320173E072E020
:100CA0003A4890F8310168B33848D0ED480AF8EE78
:100CB000E00AB0EE600A00F0F9FC20B3334890F887
:100CC000FD0000B3314890F83201401C40B22F497A
:100CD00081F83201084690F93201052817DD01201C
:100CE00081F8FF0081F8FA0081F8F900002081F80E
:100CF000310181F83201084690F82F01401C40B2C2
:100D000081F82F0103E00020204981F832013AE008
:100D100039E01E4890F8310170B31C48D0ED490A03
:100D2000F8EEE00AB0EE600A00F0C0FC28B3174805
:100D300090F8FD0008B3154890F83201401C40B20D
:100D4000124981F83201084690F93201052818DD70
:100D5000012081F8FF0081F8FA0081F8F9000020F5
:100D600081F83101084690F82F01401C40B281F80B
:100D70002F01002081F8320103E00020034981F8AF
:100D8000320100E000BF00BF00BD00005C01002098
:100D900010B52DED028B2F4890F8330160B92D4826
:100DA00090ED220AB8EEC00A80ED240A0021A0F8D6
:100DB0009410BDEC028B10BD9FED278A254890F85A
:100DC0000001012802D0022821D10FE0214890ED36
:100DD000220AB8EEC00A80ED240AB0F98E0000EEB7
:100DE000100AB8EEC00AB0EE408A11E0194890ED42
:100DF000221AB8EEC11AF0EE410A90ED241AB0EEB4
:100E0000410AC43003F0B4FCB0EE408A00E000BFF9
:100E100000BF104890F8F400C8B90E48B0F97E0041
:100E200000EE100AB8EEC00AF0EE400AB0EE480A32
:100E30000848983003F09CFCBDEEC00A10EE100A82
:100E400001B20448A0F89410002180F8F01000BF0F
:100E5000AFE700005C0100200000000010B5204852
:100E6000D0ED420AF8EEE00AB0EE600A00F072FC43
:100E70001C21012002F0B6FA00201949A1F82C012A
:100E800081F8FD0081F82A0181F8FA0081F8FC0060
:100E9000012081F8F900002081F8300181F831014A
:100EA00081F8320181F82F0181F8290181F82E01A2
:100EB0000846D0ED420AF8EEE00AB0EE600A00F013
:100EC00049FC58B10648D0ED470AF8EEE00AB0EE0A
:100ED000600A00F0EBFB08B1012010BD0020FCE728
:100EE0005C01002010B52DED028BFE4890F8330117
:100EF00048B90020FB4908830021FA48A0F8941063
:100F0000BDEC028B10BDF74890F8F900002874D0B2
:100F1000F44890F8FA000028F9D0F24890F8FC0064
:100F200009286BD2DFE800F00541BBD9F7F6F5F4EC
:100F3000F3000020EB4981F8FD0081F82A0181F8D7
:100F40003501084690F8FF00012826D10846B0F880
:100F50002C0101280BDA1021012002F067FAE14888
:100F6000B0F82C01401CDF49A1F82C011CE0DD4841
:100F7000B0F82C01401CDB49A1F82C010846B0F860
:100F80002C010A2810DD0020A1F82C01084690F859
:100F9000FC00401C81F8FC0006E0D24890F8FC0000
:100FA000401CD04981F8FC00E0E1CE48D0ED450A74
:100FB000F8EEE00AB0EE600A00F0CCFBFFF7E2FDCD
:100FC00090B1C848B0F82C01401CC649A1F82C01CA
:100FD0000846B0F82C011E2860DD0020A1F82C0185
:100FE000072081F8FC0059E0BE48B0F90200002853
:100FF00005DDBC48B0F9020005E0B8E1B3E1B9484D
:10100000B0F9020040421E2844DAB64890ED030AC7
:10101000B8EEC00AD0ED050A30EE600AB5EEC00A9F
:10102000F1EE10FA08DD90ED030AB8EEC00AD0ED3B
:10103000050A30EE600A0AE0AA4890ED030AB8EE0D
:10104000C00AD0ED050A30EE600AB1EE400ADFEDCD
:10105000A60AB4EEE00AF1EE10FA1BD2A148B0F9EC
:10106000040010F5FA6F15DD9E48B0F82C01401C05
:101070009C49A1F82C010846B0F82C0103280DDD8D
:101080000020A1F82C01084690F8FC00401C81F8D3
:10109000FC0003E000209349A1F82C0166E191488F
:1010A000B0F82C01401C8F49A1F82C010846B0F87B
:1010B0002C01032810DD0821012002F0B7F90020DF
:1010C0008849A1F82C01012081F82A01084690F8EE
:1010D000FC00401C81F8FC0048E18248B0F82C017B
:1010E000401C8049A1F82C010846B0F82C010928C1
:1010F00021DD0020A1F82C01084690F8FF0058B926
:10110000084690F8FC00801C81F8FC0013E0F7E032
:10111000C2E0A7E026E00FE0724890F8FF00012847
:1011200009D1102102F05EF96E4890F8FC00401CD5
:101130006C4981F8FC0019E16A48B0F82C01401CA8
:101140006849A1F82C010846B0F82C011E2808DDDA
:101150000020A1F82C01084690F8FC00401C81F802
:10116000FC0003E15F48D0ED430AF8EEE00AB0EE80
:10117000600A00F0EFFAB0B35A4890F83501C0B9F0
:10118000584890F8280150B1564890F82901401C61
:1011900040B2544981F82901012081F835015148B4
:1011A00090F8300128B101204E4981F8310181F8D1
:1011B00035014C48B0F82C01401C4A49A1F82C01DB
:1011C0000846B0F82C010F280EDD084690F82E01D5
:1011D00050B90020A1F82C01084690F8FC00401CF2
:1011E00081F8FC003DE013E03E48B0F82C010528F2
:1011F00037DD3C4890F82E0170B300203949A1F842
:101200002C01084690F8FC00401C81F8FC0028E006
:101210003448B0F90200002803DD3248B0F902007A
:1012200003E03048B0F902004042052815DA2D48A5
:10123000B0F82C01401C2B49A1F82C010846B0F84D
:101240002C0132280DDD0020A1F82C01084690F871
:10125000FC00401C81F8FC0003E000202149A1F8BB
:101260002C0183E00821012002F0BCF81D48B0F8F1
:101270002C01401C1B49A1F82C010846B0F82C0198
:101280000A2808DD0020A1F82C01084690F8FC008F
:10129000401C81F8FC0069E0124890F82A0118B15E
:1012A0000421012002F0C2F80E4890F8FF00012846
:1012B00002D1102102F096F80A48D0ED420AF8EE69
:1012C000E00AB0EE600A00F045FA0648B0F82C01DA
:1012D000401C0449A1F82C010846B0F82C0119283B
:1012E0000DDD03E05C0100200080BB440020A1F87C
:1012F0002C01084690F8FC00401C81F8FC0035E009
:101300000421012002F06EF82D4890F82A0190B9CE
:101310002B4890F8290170B1294890F8280150B164
:10132000274890F82901401C40B2254981F829013D
:10133000012081F82A01224890F82A0138B9204872
:1013400090F8300118B101201D4981F831010020C9
:101350001B4981F8FC0081F8F90081F8FA000120AE
:1013600081F8FD0002E0FFF779FD00BF00BF1448DF
:1013700090ED031AB8EEC11AF0EE410A90ED051A8D
:10138000B0EE410A483003F0F3F9BDEEC08A0C48D4
:10139000B0F9020000EE100AB8EEC00AF0EE400A02
:1013A000B8EEC80A06481C3003F0E2F9BDEEC00AE8
:1013B00010EE100A00B20249088300BFA0E5000049
:1013C0005C01002010B500205A4981F8F800A1F80E
:1013D0002C0100245BE000231A46194640F2DC5041
:1013E00000F034F90A2005F080FD524890F87400AE
:1013F000C8B300204F4981F8740000240846B0F9B2
:101400000200002803DD0846B0F9020003E0494865
:10141000B0F902004042022826DA4648B0F904003A
:10142000002803DD4348B0F9040003E04148B0F967
:101430000400404240F21451884215DD3D48B0F8A6
:101440002C01401C3B49A1F82C010846B0F82C01A6
:1014500032281CDD002081F8FC00A1F82C010120BD
:1014600081F8F80013E004E000203249A1F82C01D3
:101470000DE0601C84B2C82C09DD40F6D8602D490F
:10148000C8600020A1F82C0181F8FC0010BD29489B
:1014900090F8F80000289ED000231A4619461846F6
:1014A00000F0D4F8642005F020FD2248C0682149EE
:1014B000C1F80401084690ED410AB8EEC00ADFED1C
:1014C0001E0A30EE600ABDEEC00A80ED420A90EDC1
:1014D000410AB8EEC00ADFED190A30EE600ABDEE2F
:1014E000C00A80ED450A90ED410AB8EEC00ADFED72
:1014F000140A30EE600ABDEEC00A80ED440A90ED99
:10150000410AB8EEC00ADFED0F0A30EE600ABDEE08
:10151000C00A80ED430A90ED410AB8EEC00ADFED43
:101520000A0A30EE600ABDEEC00A80ED460A00BF2E
:10153000ACE700005C010020A2BC8647515E134866
:10154000CA6B2846A2BC8646515EE34770B50020B0
:101550003A4981F8F800A1F82C0100250026002462
:1015600062E04EB900231A4640F21451184600F0CA
:101570006DF8601C44B207E000231A463049184653
:1015800000F064F8601E44B20A2005F0AEFC2B485F
:1015900090F8F000B0B30021284880F8F010002542
:1015A0003C2C00DD012614F13C0F00DA002604215A
:1015B000244801F0B4FF214981F8FE00084690F864
:1015C000FE0080B300231A461946184600F03EF884
:1015D00001201A4981F8F8000846D0F88800C1F8BF
:1015E0001C010846D0F81C01A0F564302538C1F86C
:1015F00020010846D0F81C01134908440F49C1F8DE
:10160000240111E0FFE7681C85B2C82D0CDD40F60F
:10161000D8610A48C0F8881000200849A1F82C01B8
:1016200081F8FC0070BDFFE7044890F8F80000283E
:1016300097D0642005F059FC00BFF3E75C0100205F
:10164000ECFAFFFF00000240708203002DE9FC412C
:1016500007460C4615461E46380A8DF80000F8B2BB
:101660008DF80100200A8DF80200E0B28DF8030029
:10167000280A8DF80400E8B28DF80500300A8DF8CC
:101680000600F0B28DF807006B464FF4007200219F
:10169000024800F09FFDBDE8FC81000000680040AA
:1016A000014981F8330170475C0100201E4880ED3C
:1016B000240AD0ED220AF8EEE00A90ED241A70EE2A
:1016C000C10AF5EEC00AF1EE10FA08DDD0ED220AEB
:1016D000F8EEE00A90ED241A70EEC10A0AE0124812
:1016E000D0ED220AF8EEE00A90ED241A70EEC10A5D
:1016F000F1EE600A9FED0D1AF4EEC10AF1EE10FA58
:1017000010D20948B0F97E00002803DD0648B0F980
:101710007E0003E00448B0F97E004042322801DA3E
:10172000012070470020FCE75C0100200000FA4423
:101730000748D0ED220AF8EEE00AC0ED240AFDEEDB
:10174000C00A10EE900A01B20148A0F88E1070474E
:101750005C0100201E4880ED050AD0ED030AF8EE7A
:10176000E00A90ED051A70EEC10AF5EEC00AF1EE3E
:1017700010FA08DDD0ED030AF8EEE00A90ED051A44
:1017800070EEC10A0AE01248D0ED030AF8EEE00A52
:1017900090ED051A70EEC10AF1EE600A9FED0D1A88
:1017A000F4EEC10AF1EE10FA10D20948B0F90200C5
:1017B000002803DD0648B0F9020003E00448B0F950
:1017C00002004042322801DA012070470020FCE785
:1017D0005C0100200000FA4400B54B4890F8280155
:1017E00000287DD0484890F92901062804D2DFE876
:1017F00000F00304393A646583E0434890F82A0115
:1018000048B34148D0ED480AF8EEE00AB0EE600A6D
:10181000FFF74CFF28B33D480088401C3B49088037
:101820000846008805281CDD374890F8FD00C0B147
:1018300000200880344890F82901401C40B2324909
:1018400081F82901002081F8FF00012081F8FA00C9
:1018500081F8F90005E000202B4981F8280181F882
:1018600029014EE04DE02848D0ED490AF8EEE00AA3
:10187000B0EE600AFFF71AFFF0B124480088401C60
:101880002249088008460088052815DD1E4890F882
:10189000FD0088B1002008801B4890F82901401CF9
:1018A00040B2194981F82901002081F8FF00012088
:1018B00081F8FA0081F8F90023E022E01248D0ED27
:1018C000470AF8EEE00AB0EE600AFFF7EFFEB8B1A3
:1018D0000E480088401C0D4908800846008800E03A
:1018E00010E005280CDD084890F8FD0040B100200C
:1018F0000880054981F8290181F82E0181F8280125
:1019000000BF00BF00BD00005C010020640000209B
:1019100010B51B48C07990B340F6DD02012108469E
:1019200001F002FC16488088401C15498880084652
:101930008088142811D10846007838B92021012068
:1019400001F074FD01200E49087006E020210120FD
:1019500001F048FD00200A490870094880881E28C7
:101960000DD140F602020121084601F0DDFB002006
:101970000349C87188800348006806F0A1FE10BDC5
:101980005C0000205400002000BFFEE710B50022DC
:101990001146592003F042FF10BD000010B5034866
:1019A000002102680248904710BD00009897000887
:1019B0000018004010B51E2140F20B2000F01EF868
:1019C0006E2006F071FC282140F2932000F016F8FA
:1019D0006E2006F069FC32214FF4447000F00EF8DE
:1019E0006E2006F061FC3C214FF45C7000F006F8BC
:1019F0006E2006F059FCFFF7D1FF10BD2DE9F04134
:101A000004460D4600EE104AB8EE400ADFED120A19
:101A100080EE801ABCEEC10A10EE106A00EE106A69
:101A2000F8EE400A00EE105AB8EE400A20EE800AA6
:101A3000DFED0A0A80EE201ABCEEC10A10EE107A21
:101A40003146074803F0B6FF0648394602680448A5
:101A50009047BDE8F0810000002474490000C842AE
:101A6000001800409897000800B589B001210820AF
:101A700002F01EFF0121480602F02AFF00208DF827
:101A800022008DF8230002208DF821008DF820001F
:101A9000079007A92C4801F0D7FC0120079007A95F
:101AA000294801F0D1FC09220121274801F014FD49
:101AB00009220021244801F00FFD00208DF81600B6
:101AC00001208DF817008DF8180000208DF81900FE
:101AD0008DF81A008DF81B008DF812008DF8130098
:101AE00002208DF8140004208DF815000520ADF8B3
:101AF000100004A9154800F06AFA00208DF80A00C9
:101B00008DF80B0001208DF80C000020ADF80800C6
:101B100001208DF80D000020ADF80000ADF80200A6
:101B2000ADF80400ADF80600684600F033F9002275
:101B30000521142002F087FD01220221034800F054
:101B40003DFA09B000BD0000000C024000640040F6
:101B500000B587B00221114800F0A0F9E0B10020E3
:101B6000019002AA00210D4800F0BBFA002301AA4F
:101B700002A90B48006807F025F9019838B14FF029
:101B8000805008490860BFF34F8FBFF36F8F022169
:101B9000024800F0ABF800BF07B000BD0064004091
:101BA0003C00002004ED00E000B589B001210220D6
:101BB00002F07EFE0121880602F08AFE00208DF8E8
:101BC00022008DF8230002208DF821008DF82000DE
:101BD0000003079007A92D4801F036FC4FF4805010
:101BE000079007A9294801F02FFC09220D21274859
:101BF00001F072FC09220C21244801F06DFC002048
:101C00008DF8160001208DF817008DF818000020BF
:101C10008DF819008DF81A008DF81B008DF8120050
:101C20008DF8130002208DF8140004208DF81500A3
:101C30000520ADF8100004A9154800F0C8F90E20E1
:101C40008DF80A0000208DF80B0001208DF80C00A3
:101C50000020ADF8080001208DF80D000020ADF83F
:101C60000000ADF80200ADF80400ADF806006846CB
:101C700000F090F800220521402002F0E4FC01224F
:101C80000221034800F09AF909B000BD00040240A7
:101C90000068004000B587B00221114800F0FEF84E
:101CA000E0B10020019002AA00210D4800F019FACD
:101CB000002301AA02A90B48006807F083F80198E5
:101CC00038B14FF0805008490860BFF34F8FBFF321
:101CD0006F8F0221024800F009F800BF07B000BD75
:101CE000006800404000002004ED00E0B1F5007FF6
:101CF0003AD00FDC202928D006DC01291CD0042989
:101D00001DD0082940D11DE0402921D0B1F5807FA8
:101D10003AD126E0B1F5004F31D006DCB1F5806F45
:101D200025D0B1F5006F2FD124E0B1F5803F12D05E
:101D3000B1F5003F28D111E0154A826025E0082264
:101D4000C26022E01022C2601FE0082202611CE093
:101D50001022026119E00822426016E0102242605F
:101D600013E00422426010E0042242600DE00422ED
:101D700042600AE0002282610422426005E0002203
:101D800082610422426000E000BF00BF7047000093
:101D90000101010010B50021837A012202FA03F14A
:101DA0003D4A126842F001023B4B1A603A4A1C322B
:101DB00012688A43384B1C331A60027BCAB9364A10
:101DC0000C3212688A43344B0C331A604288C38841
:101DD00042EA0343304A4032847A42F8343002887F
:101DE000838842EA03432C4A4032847A02EBC402DD
:101DF0005360027B012A19D1274A0C3212680A4328
:101E0000254B0C331A604288038842EA0343224A76
:101E10004032847A42F83430C288838842EA0343ED
:101E20001D4A4032847A02EBC4025360C27A3AB946
:101E3000194A121D12688A43174B1B1D1A6006E0CF
:101E4000154A121D12680A43134B1B1D1A600289A2
:101E500032B9114A143212688A430F4B14331A6094
:101E60000289012A06D10C4A143212680A430A4B2D
:101E700014331A60427B012A06D1074A1C321268C9
:101E80000A43054B1C331A60034A126822F0010210
:101E9000014B1A6010BD00000066004070B504469A
:101EA0000D46002660692840002871D0B5F5807F76
:101EB0005CD010DC082D35D006DC012D20D0022DA1
:101EC00024D0042D72D127E0102D31D0202D35D013
:101ED000402D6BD138E0B5F5004F60D009DCB5F589
:101EE000007F49D0B5F5806F4CD0B5F5006F5DD15E
:101EF0004FE0B5F5803F2DD0B5F5003F56D12FE02E
:101F0000A0682D4900F092FC064651E0E0680321EC
:101F100000F08CFC06464BE0E068082100F086FCEF
:101F2000064645E0E068102100F080FC06463FE0F0
:101F30002069032100F07AFC064639E02069082177
:101F400000F074FC064633E02069102100F06EFCBE
:101F500006462DE06068082100F068FC064627E090
:101F60006068102100F062FC064621E0A0690121B2
:101F700000F05CFC06461BE0A069022100F056FC64
:101F8000064615E0A069042100F050FC06460FE06B
:101F90000FE0A069702100F049FC064608E0606887
:101FA000042100F043FC064602E0FFE7002600BFE4
:101FB00000E00026304670BD010101001AB14369FE
:101FC0000B43436102E043698B434361704730B583
:101FD000024600200023146824F0020414601468F0
:101FE00044F00104146000E05B1C546804F0010438
:101FF0001CB94FF6FF74A342F6D1546804F00104F3
:102000000CB900206CE08C79012C04D1146844F0E8
:102010008004146003E0146824F080041460CC7918
:10202000012C04D1146844F04004146003E01468E7
:1020300024F0400414600C7A012C04D1146844F09C
:102040002004146003E0146824F0200414604C7A27
:10205000012C04D1146844F01004146003E01468E7
:1020600024F0100414608C7A012C04D1146844F01C
:102070000804146003E0146824F008041460CC7AA7
:10208000012C04D1146844F00404146003E01468C3
:1020900024F0040414608C78A407CD7844EA056425
:1020A0000D7944EA05444D7944EA05540D886D1EC6
:1020B0002C43D461146824F001041460002300E070
:1020C0005B1C546804F001041CB14FF6FF74A3427A
:1020D000F6D1546804F001040CB1002000E00120A6
:1020E00030BD10B500F5D87303EB01131B6803F086
:1020F00004031372137A53B900F5D87303EB011379
:102100001B6840F2FF7404EA5353136009E000F5C2
:10211000D87303EB01131B686FF0604404EAD30328
:10212000536000F5D87303EB01131B6803F002033F
:10213000537200F5D87303EB01135B6803F00F03D0
:10214000937200F5D87303EB01135B681B0AD37419
:1021500000F5D87303EB01139B68D37200F5D873B5
:1021600003EB01139B681C0A147300F5D87303EB8F
:1021700001139B681C0C547300F5D87303EB011317
:102180009B681B0E937300F5D87303EB0113DB6898
:10219000D37300F5D87303EB0113DB681C0A1474C6
:1021A00000F5D87303EB0113DB681C0C547400F5C5
:1021B000D87303EB0113DB681B0E937421B9C3685A
:1021C00043F02003C36003E0036943F0200303618D
:1021D00010BD0000F0B587B004460D4616461F46F8
:1021E0001548844203D101208DF8040005E013480E
:1021F000844202D102208DF804000DB9029600E05D
:1022000003968DF8105000218DF8111008218DF8DB
:102210001210002005E03A5C0DF113010A54411C34
:10222000C8B20828F7DB0023142201A9044800687B
:1022300006F01AFD07B0F0BD0064004000680040E1
:102240003800002010B502460020936803F0806338
:10225000B3F1806F00D110E0936803F00063B3F135
:10226000006F01D1012008E0936803F08053B3F1BF
:10227000805F01D1022000E00420042874D002F520
:10228000C07303EB00131B6803F0010402F5C07375
:1022900003EB00131C600B7A7BB94B7A0C8843EA82
:1022A000445302F5C07404EB00142468234302F580
:1022B000C07404EB0014236010E00B7A4C6843EA0E
:1022C000C4034C7A234302F5C07404EB0014246861
:1022D000234302F5C07404EB001423608B7A03F0EF
:1022E0000F038B7202F5C07303EB00135B6823F0DE
:1022F0000F0402F5C07303EB00135C6002F5C073BA
:1023000003EB00135B688C7A234302F5C07404EB83
:10231000001463608B7B1C064B7B44EA03440B7BFD
:1023200044EA0323CC7A234302F5C07404EB00147F
:10233000A3608B7C1C064B7C44EA03440B7C44EA80
:102340000323CC7B234302F5C07404EB0014E36049
:1023500002F5C07303EB00131B6843F0010402F5A0
:10236000C07303EB00131C6010BD00001CB50022FD
:102370001821142006F01AFC1749086000221421C5
:10238000084606F013FC154908600022142108468F
:1023900006F00CFC12490860124805210023802237
:1023A000CDE9001010A1154806F042FE14480521A1
:1023B00000238022CDE9001012A1174806F038FE54
:1023C0001648042100238022CDE9001014A11848EA
:1023D00006F02EFE1CBD0000380000203C0000204E
:1023E0004000002044000020765461736B43616E0E
:1023F000315265636569766500000000297D00083B
:1024000048000020765461736B43616E32526563FD
:102410006569766500000000B57D00084C0000206D
:10242000765461736B43616E53656E640000000007
:10243000457E000810B59FED140A144880ED7F0A10
:102440009FED130A80ED830A0320104981F85002A2
:10245000002081F85802002412E0C4EB44110B4A1A
:1024600002EB810101F11C004FF47A521146B7EEE4
:10247000001AF7EE000AB1EE000A02F055F9641CEA
:10248000042CEADB10BD00000AD7233D9402002093
:102490000060864510B52DED0E8B82B0BE48007EE3
:1024A00040B19FEDBE0ABE4880ED7E0A80ED7D0AF8
:1024B00080ED7C0A9FEDB98AB94890F85002052852
:1024C0007ED2DFE800F003172A0D180000231A4619
:1024D0001946184600F066F902B0BDEC0E8B10BD2F
:1024E0009FEDAE0AAE4880ED7E0A80ED7D0A80ED5C
:1024F0007C0ABCE0BBE0AA4890ED7C0AB1EE400A41
:1025000080ED7C0A90ED7D0AB1EE400A80ED7D0AF7
:1025100090ED7E0A80ED7E0AA9E0A14890ED7C0A4C
:10252000B0EE408A90ED840A10EE101A0846FEF7CD
:102530000CF841EC1E0BB0EE4E0AF0EE6E0A04F001
:102540002FF8B0EE40CAF0EE60CA954890ED7D0AD3
:1025500010EE101A0846FDF7F8FF41EC1D0B53EC86
:102560001C2BFDF780FF41EC1A0B8D4890ED840A7F
:1025700010EE101A0846FDF7E8FF41EC1E0BB0EE16
:102580004E0AF0EE6E0A03F0A7FFB0EE40CAF0EE7E
:1025900060CA834890ED7C0A10EE101A0846FDF7D9
:1025A000D4FF41EC1D0B53EC1C2BFDF75CFF41EC01
:1025B0001B0B53EC1A2BFDF750FF41EC190B00E0FD
:1025C00054E0FDF7D5FF7649C1F8F001084690EDDB
:1025D000840A10EE101A0846FDF7B7FF41EC1E0BF7
:1025E000B0EE4E0AF0EE6E0A03F0DAFFB0EE40CA2B
:1025F000F0EE60CA18EE100AFDF7A7FF41EC1D0BC4
:1026000053EC1C2BFDF72FFF41EC1A0B644890EDA7
:10261000840A10EE101A0846FDF797FF41EC1E0BD6
:10262000B0EE4E0AF0EE6E0A03F056FFB0EE40CA6E
:10263000F0EE60CA5A4890ED7D0A10EE101A084676
:10264000FDF783FF41EC1D0B53EC1C2BFDF70BFF3B
:1026500041EC1B0B53EC1A2BFDF75EFE41EC190B02
:10266000FDF786FF4E49C1F8F40100E000BF00BF4E
:102670004B48D0ED7F0AB0EE600A00F5007100F51E
:10268000F87000F0A1FE4648D0ED7F0AB0EE600A77
:1026900000F5017100F5FA7000F096FE4048D0EDAB
:1026A0007F0AB0EE600A00F5027100F5FC7000F0E0
:1026B0008BFE9FED3A0AF0EE408A394890ED820A8F
:1026C000F0EE408A90ED811AF0EE410A90ED801A0A
:1026D000B0EE410A6846B0EE681A01F02FFE002401
:1026E0004BE0C4EB44102E4901EB800090F87800D9
:1026F000E8BBC4EB441001EB800090F87400B0B369
:102700003DF81400C4EB4411254A02EB81014882D4
:10271000C4EB441102EB8101B1F9021001EE101A71
:10272000B8EEC11AF0EE410AC4EB441102EB81018C
:10273000B1F9121001EE101AB8EEC11AB0EE410A4A
:10274000C4EB441102EB810101F11C0002F010F80E
:10275000BDEEC00A10EE100A00B2C4EB4411104ADC
:1027600002EB810108830020C4EB441100E003E088
:1027700002EB810181F87400641C042CB1DB084C6D
:10278000B4F98C31B4F91021B4F99410B4F91800EB
:1027900000F008F800BF9FE6760800200000000067
:1027A000940200202DE9FC4107460C4615461E46C2
:1027B000380A8DF80000F8B28DF80100200A8DF873
:1027C0000200E0B28DF80300280A8DF80400E8B298
:1027D0008DF80500300A8DF80600F0B28DF807007C
:1027E0006B464FF4007200210248FFF7F3FCBDE88E
:1027F000FC81000000640040014981F850027047EC
:1028000094020020024880ED850AC0ED860A7047D8
:1028100094020020044880ED7C0AC0ED7D0A80ED22
:102820007E1AC0ED841A70479402002002460020F0
:1028300002EA01030BB1012000E000207047000014
:10284000064890ED010AB8EEC00ADFED050A70EE09
:10285000600A9FED041A80EE810A7047440600204A
:10286000004017450000B64110B57B48807800282D
:1028700078D0012802D0022873D147E000210F2030
:1028800004F058FB28B17448407810B90020724910
:1028900088700121402004F04DFB38B19FED6F0A94
:1028A0006F4880ED830A00206B4948700121802029
:1028B00004F040FB60B10420674948709FED690A4D
:1028C000674880ED830A6848007808B1FEF7C6FAC9
:1028D0000121480204F02EFB48B15F4840780428EB
:1028E00005D16148007810B10220FEF78FF8012170
:1028F000880204F01FFB10B101205C49087001211F
:10290000080204F017FB00B100BFA2E000210F2075
:1029100004F010FB28B15048407810B900204E490F
:1029200088700121480204F005FB48B14A4840780C
:10293000042805D14C48007810B10120FEF766F854
:102940000121480304F0F6FA48B1434840780428CE
:1029500002D04148407810B901204449C87078E05D
:1029600000E075E000F0B4F80121480204F0E2FA5A
:1029700048B139484078042805D13B48007810B167
:102980000420FEF743F80121C80204F0D3FA48B14D
:1029900031484078042805D13348007810B106202A
:1029A000FEF734F80121080304F0C4FA48B12A48BC
:1029B0004078042805D12C48007810B10520FEF796
:1029C00025F80121480304F0B5FA48B122484078BF
:1029D000042805D12448007810B10720FEF716F826
:1029E0000121080204F0A6FA68B11B4840780428C7
:1029F00002D01948407830B901201D49C8711D48DE
:102A0000006805F0CDFD0121880204F093FA30B191
:102A10000120164948701748006805F0C1FD1648A6
:102A20000078C0F3800030B10B48407818B9082115
:102A3000012000F0FBFC11480078C0F3800030B1A9
:102A40000548407818B90821012000F0CBFC00E0CF
:102A500000BF00BF10BD00001800002000608645C8
:102A6000940200200000E144680000206C00002077
:102A70005C0000205400002072000020760000203E
:102A800010B50121202004F067FA18B101200F4988
:102A9000887019E00121102004F05EFA18B10220BC
:102AA0000A49887010E00121302004F055FA18B16D
:102AB00003200649887007E00121002004F04CFA49
:102AC00010B100200149887010BD000018000020DE
:102AD00010B553484078D0B90021102004F03CFADA
:102AE00028B19FED500A504880ED830A0FE0002185
:102AF000202004F031FA28B19FED4C0A4A4880EDBD
:102B0000830A04E09FED4A0A474880ED830A0021CA
:102B1000012004F021FA58B1464804F0E7FF42488A
:102B2000D0ED830A20EE200A434880ED000A1BE026
:102B30000021022004F010FA68B13E4804F0D6FFEC
:102B40003948D0ED830AF1EE600A20EE200A3A48B7
:102B500080ED000A08E09FED390A374880ED000A51
:102B60003221344804F0E2FF0021082004F0F4F997
:102B700058B1334804F0BAFF2B48D0ED830A20EE59
:102B8000200A304880ED000A1BE00021042004F0F8
:102B9000E3F968B12A4804F0A9FF2348D0ED830A7D
:102BA000F1EE600A20EE200A264880ED000A08E0D7
:102BB0009FED220A234880ED000A3221204804F0CC
:102BC000B5FF0021802004F0C7F958B11E4804F079
:102BD0008DFF1548D0ED830A20EE200A1B4880EDBA
:102BE000000A1BE00021402004F0B6F968B1164845
:102BF00004F07CFF0C48D0ED830AF1EE600A20EE71
:102C0000200A124880ED000A08E09FED0C0A0F48E8
:102C100080ED000A32210C4804F088FF10BD00004E
:102C2000180000200040CE45940200200000E1443E
:102C300000608645380100202000002000000000D0
:102C4000440100201C00002050010020240000202E
:102C500021B1026842F00102026003E0026822F042
:102C60000102026070470000016821F0010101606B
:102C70000021016041608160C160016121214161E9
:102C80004A49884204D13D21484A103A91608CE07B
:102C900046491831884205D14FF47461434A103ACD
:102CA000916082E041493031884205D14FF474117E
:102CB0003E4A103A916078E03C494831884205D15B
:102CC0004FF07461394A103A91606EE037496031D3
:102CD000884204D13649354A103AD16065E033491B
:102CE0007831884204D13349304A103AD1605CE0EF
:102CF0002E499031884204D12F492C4A103AD16094
:102D000053E02A49A831884205D14FF03D51274A66
:102D1000103AD16049E02949884204D13D21274A2F
:102D2000083A116041E025491831884205D14FF435
:102D30007461224A083A116037E0204930318842F4
:102D400005D14FF474111D4A083A11602DE01B495A
:102D50004831884205D14FF07461184A083A116031
:102D600023E016496031884204D11149134A121FE9
:102D700011601AE011497831884204D10D490F4A97
:102D8000121F116011E00D499031884204D10A49A7
:102D90000A4A121F116008E00849A831884204D18C
:102DA0004FF03D51054A121F1160704710600240FC
:102DB0003D000020400F002000003D201064024034
:102DC000014600200A6802F001020AB1012000E079
:102DD000002070470146486880B2704710B5002255
:102DE0000268134B1A40CC680B6823434C69234399
:102DF0008C692343CC6923430C6A23434C6A2343E5
:102E00008C6A23434C6B23438C6B23431A4302602D
:102E1000426922F00702D1E90B3423431A4342618D
:102E20000B6943604B6883608B68C36010BD000012
:102E30003F801CF04160704700B50849887C084914
:102E400000F01BF90549C87C064900F016F9034952
:102E5000888A054900F0CCF800BD00007608002003
:102E600072000020760000209008002000B9704712
:102E70000178427841EA0221C1F30A015B4A1180DC
:102E80004178C910827841EA4211C1F30A01574AD8
:102E9000518081788911C27841EA8201027941EA40
:102EA0008221C1F30A01514A918001794910427986
:102EB00041EAC211C1F30A014C4AD180417909119A
:102EC000890811724179C1F3011151728179C27976
:102ED00041EA022109B2454A9181017A427A41EAE6
:102EE00002210AB24149CA81817AC27A41EA0221A9
:102EF0000AB23E490A82027B8A74427BCA74817B91
:102F0000C27B41EA0221394A9182017C427C41EA3A
:102F10000221C1F30A01354A51811146C98A491C6F
:102F2000D18211460988A1F5806109B2118011464C
:102F30004988A1F5806109B2518011468988A1F5BF
:102F4000806109B291801146C988A1F5806109B2FA
:102F5000D18011464989A1F5806109B2518111469C
:102F6000B1F90010052907DC1146B1F9001011F183
:102F7000050F01DB002111801C49B1F90210052960
:102F800008DC1A49B1F9021011F1050F02DB00212A
:102F9000164A51801549B1F90410052908DC134976
:102FA000B1F9041011F1050F02DB00210F4A9180E5
:102FB0000E49B1F90610052908DC0C49B1F90610D3
:102FC00011F1050F02DB0021084AD1800749B1F950
:102FD0000A10052908DC0549B1F90A1011F1050F9D
:102FE00002DB0021014A518100BF40E77608002042
:102FF00010B5024600208880C8800A8008884B8867
:1030000058400B8818408B881843888008884B8864
:1030100058401840CB881843C880002028E00B880F
:10302000012484402340C3B101F10A0333F8103076
:103030005B1C9CB201F10A0323F8104033F81030F6
:10304000322B14DD0B890124844023430B8100249F
:1030500001F10A0323F8104009E00B8901248440A0
:10306000A3430B81002401F10A0323F81040401C04
:103070001028D4DB0888488010BD0A7822F00402AA
:103080000A700A7822F008020A700A7860F30002D7
:103090000A700A7802F001020B78C3F340039A42E7
:1030A00014D00A7802F001022AB10A78134662F3BA
:1030B00082030B700AE00A78530863F3C3020A70B4
:1030C0000A7822F010020A7000224A800A7802F080
:1030D000010262B14A88521C4A804A88322A06DDBF
:1030E0000A78134662F304130B7000224A800A78B0
:1030F000134662F341030B707047000010B504489B
:1031000002F0D0FC1421034802F01EFD10BD0000A7
:10311000A08601006208002010B5024802F07CFD84
:1031200010BD000040420F000FB42DE9F84F9DF88C
:10313000280000EB4000001DC5B24FF0000805F16B
:103140000409484603F098FF04469DF828004FEA1A
:10315000400A4FEA4A0003F08FFF06460BA8009092
:10316000002006E0009931F8042B009126F8102089
:10317000401C9DF8281049008142F3DCFF2020709C
:103180006070FE20A070E570832020711E206071A9
:103190000220A071002018E0410016F8112000EB79
:1031A0004001C91D62544100491C16F8112000EB72
:1031B0004001083162544100491C36F811100A12CE
:1031C00000EB400109316254401C9DF828108842F0
:1031D000E2DB002005E0811C615C41441FFA81F8BC
:1031E000401C691C8842F6DB6FEA0800C1B2E81C8B
:1031F0002154002704E0E15D084802F02FFF7F1C06
:10320000281D8742F7DB304603F0C2FE204603F05C
:10321000BFFEBDE8F80F5DF814FB0000004400405D
:103220007047000010B5002022E0C0EB40115F4A5B
:1032300002EB8101B1F87610052908DA0121C0EB13
:1032400040125A4B03EB820282F8781007E000210B
:10325000C0EB4012554B03EB820282F8781000213C
:10326000C0EB4012514B03EB8202A2F87610401CD7
:103270000428DADB002022E0C0EB40114C4A02EBCC
:103280008101B1F87610052908DA0121C0EB40125E
:10329000474B03EB820282F8781007E00021C0EB75
:1032A0004012434B03EB820282F878100021C0EBFE
:1032B00040123F4B03EB8202A2F87610401C02281A
:1032C000DADB002022E0C0EB40113A4A02EB810138
:1032D000B1F87610052908DA0121C0EB4012354B10
:1032E00003EB820282F8781007E00021C0EB401265
:1032F000304B03EB820282F878100021C0EB4012C1
:103300002C4B03EB8202A2F87610401C0228DADB79
:10331000002022E0C0EB0011274A02EBC101B1F806
:103320007210052908DA0121C0EB0012224B03EBD1
:10333000C20282F8741007E00021C0EB00121E4B9D
:1033400003EBC20282F874100021C0EB00121A4B8A
:1033500003EBC202A2F87210401C0228DADB174805
:10336000C08A052808DA01201449087601222021A4
:10337000134800F0E1F802E0002010490876002030
:103380000E49C8820F48B0F8CC00012804DA0120A9
:103390000C4981F8CE0003E000200A4981F8CE00F4
:1033A00000200849A1F8CC0010BD000094020020C4
:1033B000000500205C010020440600207608002063
:1033C0000004024070090020D0ED000A91ED001ABF
:1033D00030EEC11AD1ED000A40EE010AC1ED000A3B
:1033E0007047000070B504460D460448005DA843D0
:1033F0000249085500F004F870BD00007E0000206E
:103400001CB5002004E00749095C0DF80010401CC1
:103410000828F8DB6B464FF4A06200210248FEF753
:10342000D9FE1CBD7E0000200068004070B5044637
:103430000D460448005D284302490855FFF7E0FFA8
:1034400070BD00007E000020F0B50A460021002378
:10345000002400BF3DE0012505FA01F3156805EAE7
:1034600003049C4234D105684F000326BE40B54397
:10347000056015794E00B54006683543056015793D
:10348000012D02D01579022D16D185684F00032633
:10349000BE40B543856055794E00B54086683543DA
:1034A0008560456801268E40B5434560456896793C
:1034B0008E40B6B235434560C5684F000326BE4016
:1034C000B543C560D5794E00B540C6683543C56083
:1034D000491C1029BFD3F0BDF0B5002300244D07CF
:1034E000ED0E02FA05F3CE1000F1200555F8265036
:1034F0004E07F70E0F26BE40B543CF1000F1200651
:1035000046F82750CE1000F1200555F8265045EA20
:103510000304CE1000F1200545F82640F0BD024618
:10352000002013690B400BB1012000E00020704720
:1035300042694A40426170470AB1018300E0418319
:10354000704701460022002004E00B5C1344DAB20D
:10355000431CD8B21128F8DB487C904201D10120ED
:1035600070470020FCE70000FEB506460F461446F3
:103570000025D6E0705D5A287ED1681C305C5A2840
:10358000FAD17019FFF7DDFF002876D0681D315C95
:10359000281D305C41EA002000B2ADF80000E81DB3
:1035A000315CA81D305C41EA002000B2ADF8020099
:1035B00005F10900315C401E305C41EA002000B298
:1035C000ADF8040005F10B00315C401E305C41EAAF
:1035D000002000B2ADF8060005F10D00315C401E80
:1035E000305C41EA002000B2ADF8080005F10F00A0
:1035F000315C401E305C41EA002000B2ADF80A00A8
:10360000BDF9000000EE100AB8EEC00AF3EE000AA1
:1036100080EE201A84ED001ABDF9020000EE100AB7
:10362000B8EEC00AF3EE000A80EE201A84ED011A0B
:10363000BDF9040000EE100AB8EEC00AF3EE000A6D
:1036400080EE201A84ED021ABDF8060080B200EE6A
:10365000100AB8EE400ADFED350A80EE201A84ED3C
:10366000051ABDF9080000EE100AB8EEC00ADFED39
:103670002F0A80EE201A01E051E04DE084ED031A9C
:10368000BDF90A0000EE100AB8EEC00ADFED270A05
:1036900080EE201A84ED041A05F11000305C84F8E5
:1036A000220094ED050AD4ED060A30EE600ADFED43
:1036B000200AB4EEE00AF1EE10FA03D2208C401C8E
:1036C00000B2208494ED060AD4ED050A30EE600ABB
:1036D000DFED170AB4EEE00AF1EE10FA03D2208C07
:1036E000401E00B2208494ED050A84ED060A94ED94
:1036F000050AB4F9200000EE900AF8EEE00A9FED0A
:103700000D1A01EE200A84ED070AA08C401CA0844B
:10371000012084F82300FEBD681C85B201E0681C0E
:1037200085B2BD42FFF626AF00BFF4E70000C842F5
:10373000000096C30000B44330B5034613B94FF6FA
:10374000FF7030BD09E013F8014B82EA0400C0B2FB
:10375000054D35F8100080EA2222081EA1F1010172
:10376000F1D11046EDE700009695000830B503460C
:1037700005E013F8010B80EA02040448025D081E0C
:10378000A1F10101F5D1104630BD0000959400086B
:103790001CB50121084601F08BF800208DF80400CB
:1037A00001208DF8070000208DF805000220009010
:1037B00069460848FFF748FE012000906946054821
:1037C000FFF742FE0820009069460248FFF73CFEE2
:1037D0001CBD00000000024000BFFEE710B54FF422
:1037E000E13002F0C3FAB421014802F011FB10BD30
:1037F000BC08002070B505460E46002445E1285D52
:10380000A52870D1601D295CA01D285C41EA00201C
:1038100040F20222811A904276D015DC40F2011269
:10382000A0EB0201904250D006DC01281BD00228F8
:103830002BD0032869D138E0012957D0022967D05D
:10384000B1F5807FF6D17AE0042972D006DC012937
:1038500070D002296FD00329ECD1BEE005296BD0CE
:10386000FF29E7D1F4E028190C2102F079FC50B1CE
:10387000E01D28448A4902880A80807888700C34C8
:103880000120087100E0641CFDE028190A2102F003
:1038900067FC40B1E01D29188148097881710A341C
:1038A0000121C17100E0641CEDE028190B2102F038
:1038B00057FC40B1E01D29187948098801810B3473
:1038C0000121817200E0641CDDE028190D2102F065
:1038D00047FC48B1E01D291871480968C1600D34E2
:1038E0000121017401E0CFE0641CCCE028190D2116
:1038F00002F036FC50B1E01D2918694809684161A1
:10390000241D0121017602E02DE0BAE0641CBAE03A
:1039100028190C2102F024FC78B1E01D2918604818
:103920000A88A0F819208978C176E41C0121017762
:1039300004E067E02BE03EE076E0641CA3E0281999
:10394000182102F00DFC60B1E01D29180F22544827
:103950001E30FCF7A7FC0F340121514880F82E10CF
:1039600000E0641C8FE02819172102F0F9FB60B118
:10397000E01D29180E224A483030FCF793FC0E3423
:103980000121474880F8401000E0641C7BE02819C2
:10399000192102F0E5FB60B1E01D29181022404812
:1039A0004430FCF77FFC103401213D4880F854106E
:1039B00000E0641C67E028190A2102F0D1FB50B135
:1039C000E01D29183648097880F85810641C012138
:1039D00080F8591000E0641C55E028190C2102F011
:1039E000BFFB68B1E01D28442D495A3102880A8086
:1039F00080788870E41C0121294880F85D1000E07F
:103A0000641C40E028190A2102F0AAFB50B1E01D15
:103A100029182348097880F85E10641C012180F879
:103A20005F1000E0641C2EE028190F2102F098FBC3
:103A300060B1E01D29181A480A6802668988A0F852
:103A40006410A41D012180F8661000E0641C1AE0D7
:103A50002A19527802F10901281902F081FB70B18C
:103A60002A195178E21DA81800F01CF8281940788E
:103A70000930044401210A4880F8821000E0641CE7
:103A800001E0641C00BF00E0641CB442FFF6B7AE66
:103A90000348B0F8CC00401C0149A1F8CC0070BD2F
:103AA00070090020064A0368D3678388A2F8803033
:103AB000B2F87C20A2F2012202B900BF00BF704719
:103AC0007009002010B588B02C4890F8CB00401C3D
:103AD0002A4981F8CB00A5208DF8040013208DF829
:103AE000050000208DF80600084690F8CB008DF800
:103AF0000700FF22042101A8FFF738FE8DF8080017
:103B000001208DF8090003208DF80A004DF2801085
:103B10001A49A1F867000846817FA0F86910807FE4
:103B20000A2808DD1548807F00F5837081B21348AC
:103B3000A0F86B1006E01148807F00F580700F49F7
:103B4000A1F86B0013220D4967310DF10B00FCF752
:103B5000A9FB1C2101A8FCF7D5FE0021074880F82D
:103B60007A10002405E001A8015D054802F076FA0C
:103B7000641C1C2CF7DB08B010BD0000700900208D
:103B8000001401401CB50121022000F091FE01212A
:103B9000102000F08DFE01208DF8040000208DF82B
:103BA00006008DF807008DF805002020009069467A
:103BB0001048FFF749FC1020009069460D48FFF7B8
:103BC00043FC4FF47E40009069460B48FFF73CFCF5
:103BD000012220210748FFF7AFFC012210210548F0
:103BE000FFF7AAFC01224FF47E410348FFF7A4FC33
:103BF0001CBD000000040240001002402DE9FC4101
:103C000007460C4615461E46380A8DF80000F8B2E5
:103C10008DF80100200A8DF80200E0B28DF8030053
:103C2000280A8DF80400E8B28DF80500300A8DF8F6
:103C30000600F0B28DF807006B4640F2FF1200213B
:103C40000248FEF7C7FABDE8FC81000000640040AE
:103C500010B51C4800F05EFA1A487C3000F05AFAA1
:103C60000020184981F8300140F2BC70A1F82C0105
:103C7000002412E0C4EB4411124A02EB810101F16D
:103C80001C004FF47A5211469FED0F1ADFED0F0A18
:103C9000B1EE000A00F048FD641C022CEADB40F69D
:103CA000E44241F69C019FED081ADFED070A9FED03
:103CB000080A084800F038FD0320024981F8400155
:103CC00010BD00000005002000000000CDCCCC3E5F
:103CD000CDCCCC3D0006002010B52DED028B9FED24
:103CE000DF0AB0EE408A0121DD48FFF718FC08B971
:103CF000012000E00020DB4981F832010221D84890
:103D0000FFF70DFC08B9012000E00020D54981F83B
:103D10003301084690F8320108B9012000E0002084
:103D200002464FF40051D048FFF706FCCD4890F80A
:103D3000330108B9012000E0002002464FF4804121
:103D4000C948FFF7F9FBC74890F8300100285ED159
:103D5000C44890F8F000002856D00021C14880F8EF
:103D6000F0100221BE48FFF7DAFBE8BBBD48B0F90E
:103D70007E00002803DDBB48B0F97E0003E0B948AF
:103D8000B0F97E00404202283ADAB648B0F82E0177
:103D9000401CB449A1F82E010846B0F82E01322883
:103DA00032DD0020A1F82E01012081F83001084603
:103DB000D0F8880046F290510844AA49C1F83C0165
:103DC0000846D0F83C01A9490844A649C1F8380181
:103DD0000846D0F83C01A6490844A249C1F834017C
:103DE000084690ED030A00E00AE0B8EEC00A80ED54
:103DF000050A90ED220AB8EEC00A80ED240A03E01D
:103E000000209849A1F82E01BDEC028B10BD954809
:103E100090F8400120B1012827D0022839D110E0C4
:103E200000219048A0F89410018390ED220AB8EE8A
:103E3000C00A80ED240AD0F888008A49C1F8F80049
:103E4000E2E7884890ED220AB8EEC00A80ED240A25
:103E5000D0F888008349C1F8F800084690ED3F0A81
:103E6000B8EEC00AB0EE408A14E07E4890ED221A07
:103E7000B8EEC11AF0EE410A90ED3E1AB8EEC11A42
:103E8000B0EE410A00F5807000F072FCB0EE408A9E
:103E900000E000BF00BF7748007E20B9714890F86D
:103EA0004001032803D19FED6D0AB0EE408A6D48B2
:103EB00090F8320140B1B5EEC08AF1EE10FA03DDA0
:103EC0009FED660AB0EE408A664890F8330140B133
:103ED000B5EEC08AF1EE10FA03D29FED600AB0EEA3
:103EE000408A6048D0F888005E49D1F83C11401AF9
:103EF0004CF25031884209DB5A48D0F83411D0F8DE
:103F00008800081A4CF25031884213DA5548B0F84C
:103F10002C01A0F5C8705349A1F82C010846B0F84F
:103F20002C0140F2DC51884216DA08464D49A1F8CE
:103F30002C0111E04B48B0F82C01C8304949A1F8D8
:103F40002C010846B0F82C0140F2BC71884203DD18
:103F500008464449A1F82C0100BF4248B0F82C01A2
:103F6000404200EE100AB8EEC00AB4EEC80AF1EE04
:103F700010FA0ADB3B48B0F82C01404200EE100A70
:103F8000B8EEC00AB0EE408A14E03648B0F82C0112
:103F900000EE100AB8EE400AB4EEC80AF1EE10FACC
:103FA00008D83048B0F82C0100EE100AB8EE400AEC
:103FB000B0EE408A00BFB1EE480ABDEEC00A10EE76
:103FC000100A00B227494882BDEEC80A10EE100A56
:103FD00001B22448A0F88E1090F87800D8BB214890
:103FE00090F8F400B8BB002433E0C4EB44111D4A40
:103FF00002EB8101B1F9021001EE101AB8EEC11AFC
:10400000F0EE410AC4EB441102EB8101B1F9121048
:1040100001EE101AB8EEC11AB0EE410AC4EB441119
:1040200002EB810101F11C0000F0A2FBBDEEC00A11
:1040300010EE100A00B2C4EB44110A4A02EB8101EF
:1040400008830020C4EB441102EB810181F8740065
:10405000641C022CC9DB00BFD6E600000000000093
:104060000000024000050020001002402030050042
:10407000B274060076080020014981F840017047BB
:10408000000500200146224890F8300108B90020C0
:1040900070471F48D0F83401884202DA1C48D0F833
:1040A00034111B48D0F83C01884202DD1848D0F892
:1040B0003C111748C0F8F810D0F8F820D0F8880064
:1040C000101A002806DD1248D0F8F820D0F8880031
:1040D000101A06E00E48D0F888000D4AD2F8F820F1
:1040E000801AB0F5FA6F10DA0948B0F97E0000289E
:1040F00003DD0748B0F97E0003E00548B0F97E0013
:104100004042322801DA0120C2E70020C0E7000067
:10411000000500200146B1F910000A88CA600A8132
:1041200000220A82704700000FB49DF810109DF81D
:104130000F2041EA022101809DF812209DF8111004
:1041400042EA012109B241809DF814209DF8131024
:1041500042EA012109B281809DF815108171018820
:104160000289891A114A914203DA018A491C09B26B
:10417000018201890288891A0C4A914203DA018A74
:10418000491E09B20182018801810188028A4FF427
:10419000005313FB0211C160B0F87610491CA0F85F
:1041A0007610012180F8741004B0704790E8FFFF8A
:1041B0000FB49DF810109DF80F2041EA02210180F4
:1041C0009DF812209DF8111042EA012109B20181E7
:1041D0000188428A891A124A914203DA818A491C6B
:1041E00009B28182418A0288891A0D4A914203DA12
:1041F000818A491E09B28182018841820188828AAE
:104200004FF4005313FB02114160B0F87210491CC7
:10421000A0F87210012180F8701004B070470000FF
:1042200090E8FFFF10B52148007800283CD02048D6
:10423000007820B101280CD0022834D11FE0802161
:104240000120FFF7CFF81A480078401C1849087081
:1042500029E016488078401C144988700846807808
:104260000A280BDD02210120FFF7BCF81048007876
:10427000401C0F49087000200C49887013E00B485F
:104280008078401C09498870084680780A2809DD32
:1042900000200870064908700449887005480068C5
:1042A00004F00EFA00BF00BF10BD00006C0000203B
:1042B000710000205400002010B51B4840780028F1
:1042C00031D01A48007820B101280CD0022829D119
:1042D0001BE002210120FFF7A9F814480078401CD8
:1042E000124908701EE010488078401C0E49887002
:1042F000084680783C2807DD0C480078401C0B49B4
:1043000008700020084988700CE080210120FFF728
:104310008DF80020044948700449087002498870EB
:10432000C87000BF00BF10BD6C00002070000020EE
:1043300010B5FFF777FFFFF7BFFF10BD0FB50146C0
:104340009FEDB93AB0EE432AB7EE003AF0EE431AC9
:10435000B7EE003AF0EE432A00BF9FEDB43AB4EE58
:10436000C30AF1EE10FA04D89FEDB03AB0EE430A5A
:104370000AE09FEDAF3AB4EEC30AF1EE10FA03DBA8
:104380009FEDAB3AB0EE430A00BF00BF9FEDA73AE6
:10439000F4EEC30AF1EE10FA04D89FEDA43AF0EE61
:1043A000430A0AE09FEDA23AF4EEC30AF1EE10FAD6
:1043B00003DB9FED9F3AF0EE430A00BF00BF9FED85
:1043C0009B3AB4EEC31AF1EE10FA04D89FED973A77
:1043D000B0EE431A0AE09FED963AB4EEC31AF1EE3E
:1043E00010FA03DB9FED923AB0EE431A00BF9148FA
:1043F00090ED853AD0ED863A33EE633ADFED8E3AB2
:1044000033EEC33ADFED8C3A83EE234A8B4880EDDE
:10441000004A884890ED853AB1EE433AD0ED863AAD
:1044200033EE633ADFED843A33EEC33ADFED823A9E
:1044300083EE234A814880ED014A7E4890ED853A1B
:10444000B1EE433AD0ED863A33EE233ADFED7A3AD5
:1044500033EEC33ADFED783A83EE234A774880EDB6
:10446000024A744890ED853AD0ED863A33EE233A0D
:10447000DFED713A33EEC33ADFED6F3A83EE234A54
:104480006E4880ED034A002036E06C4A02EB800261
:1044900092ED003AB5EEC03AF1EE10FA05DD674A4A
:1044A00002EB800292ED003A06E0644A02EB8002E1
:1044B00092ED003AB1EE433AB4EEE23AF1EE10FA80
:1044C00018DD5E4A02EB800292ED003AB5EEC03A8A
:1044D000F1EE10FA05DD594A02EB800292ED003A46
:1044E00006E0564A02EB800292ED003AB1EE433A02
:1044F000F0EE432A421CD0B20428C6DB30EE203A4C
:104500004E48D0ED003A01EE233A8DED003A30EE00
:10451000603AD0ED013A01EE233A8DED013AB1EE69
:10452000403A33EE603AD0ED023A01EE233A8DED97
:10453000023AB1EE403A33EE203AD0ED033A01EEC2
:10454000233A8DED033A002036E06A4602EB800202
:1045500092ED003AB5EEC03AF1EE10FA05DD6A468A
:1045600002EB800292ED003A06E06A4602EB80021E
:1045700092ED003AB1EE433AB4EEC23AF1EE10FADF
:1045800018DD6A4602EB800292ED003AB5EEC03AC1
:10459000F1EE10FA05DD6A4602EB800292ED003A78
:1045A00006E06A4602EB800292ED003AB1EE433A31
:1045B000B0EE432A421CD0B20428C6DB9FED1C3A61
:1045C000B4EEC32AF1EE10FA05DD9FED193AC3EE01
:1045D000023AF0EE631A9DED003A23EE213ABDEE69
:1045E000C33A13EE100A00B208809DED013A23EEA3
:1045F000213ABDEEC33A13EE100A00B248809DED99
:10460000023A23EE213ABDEEC33A13EE100A00B28D
:1046100088809DED033A23EE213ABDEEC33A13EEB6
:10462000100A00B2C8800FBD000000000040CEC5D7
:104630000040CE45940200200000EF43F00400202B
:1046400000BFFEE77047F8B506460C461546F0B2C7
:104650008DF80000E0B28DF80100E8B28DF802009C
:1046600001208DF80300684600F002F8F8BD000054
:1046700070B5002100230F22C4781CB3174C2468A6
:1046800004F4E064C4F5E064C4F30721C1F1040458
:10469000E3B20A4144789C40E1B28478144021435B
:1046A0000C07210E0E4C05786155047804F01F05A7
:1046B0000124AC4005786D11AD0005F1E025C5F889
:1046C000004109E0047804F01F050124AC40054DC9
:1046D0000678761145F8264070BD00000CED00E02C
:1046E00000E400E080E100E002490143024A116079
:1046F000704700000000FA050CED00E01CB5012138
:10470000084600F0D5F800208DF804008DF8070069
:104710008DF805000420009069460248FEF794FEDB
:104720001CBD000000000240DFED101AC0ED001AB1
:10473000DFED0E1AC0ED011A41628262DFED0B1A45
:10474000C0ED021ADFED091AC0ED031ADFED071AFA
:10475000C0ED041A80ED050AC0ED060A80ED071AC7
:10476000DFED021AC0ED081A7047000000000000DB
:1047700010B52DED048B82B00446B0EE408AF0EE09
:10478000608A84ED008AC4ED018A94ED000AD4EDBC
:10479000010A30EE600A84ED020A94ED080AB5EED3
:1047A000C00AF1EE10FA02DD94ED080A03E094ED80
:1047B000080AB1EE400AD4ED090AF8EE600AB4EE38
:1047C000E00AF1EE10FA08D294ED040AD4ED020AE0
:1047D00030EE200A84ED040A2CE094ED080AB5EED0
:1047E000C00AF1EE10FA0FDD94ED020AB5EEC00A30
:1047F000F1EE10FA08D294ED040AD4ED020A30EE7C
:10480000200A84ED040A15E094ED080AB5EEC00A0A
:10481000F1EE10FA0ED294ED020AB5EEC00AF1EEF6
:1048200010FA07DD94ED040AD4ED020A30EE200AF6
:1048300084ED040A94ED050AD4ED020A20EE209AD4
:1048400094ED060AD4ED040A20EE200A8DED010A4B
:1048500094ED020AD4ED030A30EE600AD4ED070AA3
:1048600060EE209AD4ED0A0AF8EE600AB0EE600A13
:1048700001A802F023FB9DED010A39EE000A30EE9B
:10488000290A84ED080AD4ED090AF8EE600AB0EEB0
:10489000600A04F1200002F011FB94ED020A84ED9D
:1048A000030A94ED080A02B0BDEC048B10BD0000B1
:1048B00029B1064A12680243044B1A6004E0034A15
:1048C00012688243014B1A60704700003038024082
:1048D00029B1064A12680243044B1A6004E0034AF5
:1048E00012688243014B1A60704700004038024052
:1048F00029B1064A12680243044B1A6004E0034AD5
:1049000012688243014B1A6070470000443802402D
:10491000F0B5002100220024022500260223324F98
:104920003F6807F00C0121B1042905D0082937D1CF
:1049300005E02E4F076036E02D4F076033E02A4F29
:104940003F1F3F68C7F38056274F3F1F3F6807F060
:104950003F036EB1264FB7FBF3F7DFF88CC0ACF125
:10496000040CDCF800C0CCF3881C07FB0CF40CE052
:104970001E4FB7FBF3F7DFF870C0ACF1040CDCF8A6
:1049800000C0CCF3881C07FB0CF4174F3F1F3F6897
:10499000C7F301477F1C7D00B4FBF5F7076002E019
:1049A000124F076000BF00BF0F4F3F6807F0F001D4
:1049B0000909104F7A5C0768D74047600A4F3F6883
:1049C00007F4E051890A0B4F7A5C4768D74087604B
:1049D000054F3F6807F46041490B064F7A5C476812
:1049E000D740C760F0BD0000083802400024F40042
:1049F000001BB700F400002010B50020FDF7FCFEFE
:104A00000020FFF739FB0020FCF74AFE10BD10B56F
:104A10000120FFF731FB0120FCF742FE0120FDF7EA
:104A2000EBFE10BD2DE9F74F8346174600BF224825
:104A3000007808B901F0BCFB00BF0BEB4B011E482E
:104A4000603000EBC106DDF804903569D6F80CA0A3
:104A50004FF00008554515D9B068441BBC4201D23F
:104A6000204600E038460446706841192246484610
:104A7000FBF718FCA044A1443F1B2544B068A842A2
:104A800000D10025AAEB0504BC4201D2204600E07B
:104A9000384604464CB17068411922464846FBF737
:104AA00001FCA044A1443F1B2544B8F1000F00D0F5
:104AB00035614046BDE8FE8F103801202DE9F84FE2
:104AC00082468B461646CDF800B00AEB4A012648CE
:104AD00000EBC104D4F81090E568A94533D8A0686C
:104AE000401E471BB7420AD36168481932460099F5
:104AF000FBF7D8FBA819E0600120BDE8F88F4F4410
:104B0000B7422FD3A068A0EB0508B04508D961686B
:104B1000481932460099FBF7C5FBA819E06010E080
:104B20006168481942460099FBF7BCFBA6EB0802F6
:104B3000009B03EB08016068FBF7B4FBA6EB0800E1
:104B4000E0600120D9E7A9EB0500471EB74209D371
:104B50006168481932460099FBF7A4FBA819E06088
:104B60000120CAE70020C8E72838012070B5EFF31C
:104B700011800646202080F3118800BF00BF28481E
:104B800001F0BCFB05462C462046264A516805E04C
:104B9000CAB242F0800200F8012BC9097F29F7D878
:104BA00000F8011B044620461E4A916805E0CAB27F
:104BB00042F0800200F8012BC9097F29F7D800F8DC
:104BC000011B04462046174A116905E0CAB242F0AB
:104BD000800200F8012BC9097F29F7D800F8011BD2
:104BE00004462046022105E0CAB242F0800200F8E5
:104BF000012BC9097F29F7D800F8011B04461822A8
:104C00002146284601F07EFBF0B280F3118800BFF8
:104C100000BF0448406A10B10249486A804770BD2D
:104C2000F0400120C840012070B5EFF31180044628
:104C3000202080F3118800BF00BF074801F05EFB11
:104C4000054611222946284601F05CFBE0B280F3BC
:104C5000118800BF00BF70BDF04001202DE9F04178
:104C60000446EFF311800746202080F3118800BF2F
:104C700000BF114801F042FB05462E460F4800696F
:104C8000201A84083046214605E0CAB242F080026C
:104C900000F8012BC9097F29F7D800F8011B064647
:104CA00008223146284601F02DFBF8B280F3118826
:104CB00000BF00BFBDE8F081F0400120C8400120E6
:104CC0002DE9F0410446EFF311800746202080F3E0
:104CD000118800BF00BF114801F010FB05462E46A9
:104CE0000F480069201A84083046214605E0CAB200
:104CF00042F0800200F8012BC9097F29F7D800F89B
:104D0000011B064604223146284601F0FBFAF8B2A0
:104D100080F3118800BF00BFBDE8F081F0400120A2
:104D2000C84001202DE9F0410446EFF31180074609
:104D3000202080F3118800BF00BF114801F0DEFA87
:104D400005462E460F480069201A84083046214641
:104D500005E0CAB242F0800200F8012BC9097F29A0
:104D6000F7D800F8011B064606223146284601F016
:104D7000C9FAF8B280F3118800BF00BFBDE8F08126
:104D8000F0400120C840012070B50C48006A78B19D
:104D90000A48006A006858B10849096A08688047EB
:104DA00004460D462A4621460D2000F039F804E05D
:104DB000034841680C2000F005F870BDC840012090
:104DC000001000E02DE9F04105460E46EFF311809A
:104DD0008046202080F3118800BF00BF0F4801F0FB
:104DE0008DFA044627463846314605E0CAB242F0FD
:104DF000800200F8012BC9097F29F7D800F8011BB0
:104E000007462A463946204601F07CFA08F0FF00A2
:104E100080F3118800BF00BFBDE8F081F0400120A1
:104E20002DE9F04706460F469046EFF31180814684
:104E3000202080F3118800BF00BF174801F05EFA00
:104E400005462C462046394605E0CAB242F08002AB
:104E500000F8012BC9097F29F7D800F8011B044687
:104E60002046414605E0CAB242F0800200F8012B1C
:104E7000C9097F29F7D800F8011B044632462146AC
:104E8000284601F03FFA09F0FF0080F3118800BFC7
:104E900000BFBDE8F0870000F04001202DE9F04799
:104EA00006460F4690469946EFF311808246202031
:104EB00080F3118800BF00BF1D4801F01FFA0546AE
:104EC0002C462046394605E0CAB242F0800200F87E
:104ED000012BC9097F29F7D800F8011B0446204699
:104EE000414605E0CAB242F0800200F8012BC90930
:104EF0007F29F7D800F8011B04462046494605E003
:104F0000CAB242F0800200F8012BC9097F29F7D804
:104F100000F8011B044632462146284601F0F2F90A
:104F20000AF0FF0080F3118800BF00BFBDE8F087E2
:104F3000F04001202DE9F05F06460F469046994665
:104F4000DDF828A0EFF311808346202080F311883C
:104F500000BF00BF244801F0D1F905462C46204689
:104F6000394605E0CAB242F0800200F8012BC909B7
:104F70007F29F7D800F8011B04462046414605E08A
:104F8000CAB242F0800200F8012BC9097F29F7D884
:104F900000F8011B04462046494605E0CAB242F02B
:104FA000800200F8012BC9097F29F7D800F8011BFE
:104FB00004462046514605E0CAB242F0800200F89D
:104FC000012BC9097F29F7D800F8011B0446324696
:104FD0002146284601F096F90BF0FF0080F3118876
:104FE00000BF00BFBDE8F09FF040012070B504464F
:104FF000EFF311800546202080F3118800BF00BF29
:10500000074801F07BF9064622463146304601F05A
:1050100079F9E8B280F3118800BF00BF70BD0000CD
:10502000F04001202DE9F047064627480068002897
:1050300047D025480468002703E0246904B902E04A
:105040007F1CB742F9D300BF002C3AD0EFF3118098
:105050008146202080F3118800BF00BF1B4801F06B
:105060004DF9804645462846314605E0CAB242F031
:10507000800200F8012BC9097F29F7D800F8011B2D
:1050800005462846A16805E0CAB242F0800200F851
:10509000012BC9097F29F7D800F8011B054680229A
:1050A0002846216801F0BCF80546162229464046EC
:1050B00001F028F909F0FF0080F3118800BF00BF5C
:1050C00000BFBDE8F087000010010020F040012083
:1050D00010B50748006848B10548046800BFE0689B
:1050E00008B1E06880472469002CF8D110BD0000A9
:1050F0001001002070B5EFF311800646202080F3E8
:10510000118800BF00BF0F4801F0F8F8044625469B
:1051100028460D4A117805E0CAB242F0800200F834
:10512000012BC9097F29F7D800F8011B05461B226E
:105130002946204601F0E6F8F0B280F3118800BF5E
:1051400000BF70BDF0400120140100202DE9F041A6
:105150000546EFF311800746202080F3118800BF39
:1051600000BF3C4801F0CAF80646344620463A4B98
:105170002A681B69D21A910805E0CAB242F080027F
:1051800000F8012BC9097F29F7D800F8011B044654
:105190002046A96805E0CAB242F0800200F8012B5F
:1051A000C9097F29F7D800F8011B044620222046B0
:1051B000696801F035F8044609222146304601F0BD
:1051C000A1F834462046244B2A681B69D21A91085C
:1051D00005E0CAB242F0800200F8012BC9097F291C
:1051E000F7D800F8011B04462046E96805E0CAB27A
:1051F00042F0800200F8012BC9097F29F7D800F896
:10520000011B04462046296905E0CAB242F080022B
:1052100000F8012BC9097F29F7D800F8011B0446C3
:105220002046002105E0CAB242F0800200F8012BBE
:10523000C9097F29F7D800F8011B04461522214629
:10524000304601F05FF8F8B280F3118800BF00BF6C
:10525000BDE8F081F0400120C840012010B50648AB
:10526000006A38B10448006A406818B10249096A06
:105270004868804710BD0000C84001200146024830
:105280000069081A80087047C840012070B53D4881
:105290000078002875D101203A490870EFF3118099
:1052A0000446202080F3118800BF00BF0A2236493F
:1052B0000120FFF703FCE0B280F3118800BF00BFBC
:1052C0000A20FFF793FEEFF311800646202080F3BB
:1052D000118800BF00BF2D4801F010F805462C468C
:1052E0002046284A516805E0CAB242F0800200F820
:1052F000012BC9097F29F7D800F8011B0446204675
:10530000204A916805E0CAB242F0800200F8012B01
:10531000C9097F29F7D800F8011B04462046194A1D
:10532000116905E0CAB242F0800200F8012BC909F8
:105330007F29F7D800F8011B04462046022105E02A
:10534000CAB242F0800200F8012BC9097F29F7D8C0
:1053500000F8011B044618222146284600F0D2FF1F
:10536000F0B280F3118800BF00BF0648406A10B158
:105370000449486A8047FFF707FDFFF76FFFFFF713
:10538000B9FE70BDC8400120A8970008F040012078
:1053900070B5EFF311800546202080F3118800BF1F
:1053A00000BF0A4800F0AAFF04460948007838B157
:1053B0000B222146204600F0A5FF0020044908707A
:1053C000E8B280F3118800BF00BF70BDF04001203B
:1053D000C84001202DE9F0410546EFF31180064653
:1053E000202080F3118800BF00BF194800F086FF1D
:1053F000074680222946384600F012FF0446204620
:10540000012105E0CAB242F0800200F8012BC9096F
:105410007F29F7D800F8011B04462046002105E04B
:10542000CAB242F0800200F8012BC9097F29F7D8DF
:1054300000F8011B04461A222146384600F062FF9C
:10544000F0B280F3118800BF00BFBDE8F08100001A
:10545000F04001202DE9F84305460C4616461F464C
:10546000DDF82080052221A12046FAF73FFF08B988
:10547000BDE8F8831F480068082803D31E48FFF7DB
:10548000A9FFF5E71B48006800EB80001B4941F8C5
:1054900020501848006800EB800001EB8000446059
:1054A0001448006800EB800001EB80008660114822
:1054B000006800EB800001EB8000C7600D480068C9
:1054C00000EB800001EB8000C0F810800948006804
:1054D000401C084908603B46324621462846CDF824
:1054E000008000F095F800BFC2E7000049444C4539
:1054F0000000000004010020E89800087037012037
:1055000070B505464048006800B970BD002408E049
:1055100004EB84003D4951F82000A84200D104E08A
:10552000641C394800688442F2D300BF36480068E2
:10553000401EA0420DD104EB8401344A02EB8100ED
:105540001421FAF7C8FE30480068401E2E49086052
:1055500057E02D480068844253D22B480068401E13
:1055600000EB8000294951F8200004EB8401274A10
:1055700042F8210024480068401E00EB80001146DC
:1055800001EB8000406804EB840102EB810148607C
:105590001D480068401E00EB8000114601EB8000B2
:1055A000806804EB840102EB810188601648006882
:1055B000401E00EB8000114601EB8000C06804EB48
:1055C000840102EB8101C8600F480068401E00EBB7
:1055D0008000114601EB8000006904EB840102EBBE
:1055E0008101086108490968491E01EB810102EB4C
:1055F00081001421FAF76FFE03480068401E02493B
:10560000086000BF81E7000004010020703701201E
:105610002DE9F04186B004460D4616461F46DDF8DA
:105620003080142101A8FAF756FE019402950396E2
:105630000497CDF8148001A8FFF788FD06B0BDE8F7
:10564000F08100000CB500200190009041480068F6
:1056500040F480303F49086000BF3E48006800F4D5
:10566000003000900198401C0190009818B90198F2
:10567000B0F5A04FF1D13748006800F4003010B108
:105680000120009001E0002000900098012860D1E6
:1056900030484030006840F080502E49403108606A
:1056A0002D48006840F440402B49086029480830E4
:1056B00000682849083108600846006840F4004046
:1056C00008600846006840F4A05008602348091F9D
:1056D0000860081F006840F08070091F086000BF64
:1056E0001C48006800F000700028F9D01A480068D3
:1056F00040F480301849086000BF1748406800F443
:1057000080300028F9D01448006840F40030124975
:10571000086000BF1048406800F400300028F9D04D
:1057200040F205700E4908600A480830006820F011
:1057300003000849083108600846006840F002008C
:10574000086000BF03480830006800F00C0008281B
:10575000F8D10CBD00380240007000400C5A4007E0
:10576000003C024010B503F093FC012801D003F087
:1057700003FA10BD10B51548006840F470001349D5
:1057800008601348006840F00100114908600020DB
:105790000F49083108600E4800680E4908400C495E
:1057A00008600D48091D0860081F006820F480206B
:1057B000091F0860002006490C310860FFF742FF0E
:1057C0004FF0006001498039086010BD88ED00E0AD
:1057D00000380240FFFFF6FE103000241CB5012106
:1057E0000220FFF765F802208DF8040000208DF8F4
:1057F00006008DF8070003208DF805004FF4804067
:10580000009069460448FDF71FFE09220E21024858
:10581000FDF762FE1CBD00000004024070B588B0B8
:1058200006460C461546FFF7D9FF01214020FFF739
:105830004FF8ADF8146006940020ADF81C00ADF8E8
:10584000160005A90F4800F0BFF86020ADF8000071
:105850000120ADF802000020ADF804000295ADF87B
:105860000C00ADF81000ADF80E00ADF8120069465E
:10587000044800F061F80121024800F040F808B047
:1058800070BD00000018004010B501210B4800F069
:1058900042F888B10A480068401C09490860642839
:1058A00006DD20210748FDF743FE0020044908607B
:1058B0000121024800F020F810BD00000010004057
:1058C000000000200004024010B50121084800F04B
:1058D00022F860B107480068401C06490860142897
:1058E00001DD002008600121014800F005F810BD2D
:1058F0000014004004000020CA430282704721B116
:10590000028842F00102028004E002884FF6FE7332
:105910001A400280704730B5024600200023002460
:10592000158A05EA0103958905EA010413B10CB152
:10593000012000E0002030BD70B5002400220023CB
:10594000058C4FF6FE7635400584028C8388048BE7
:105950004FF68F752C40B51E2C400D882C43751EBC
:105960002A408D892A434D882A43104DA84202D0EF
:105970000F4DA84213D14FF6F7752A40CD892A431F
:105980004FF6FB752A408D882A434FF6FF652B4062
:105990004FF6FF552B400D8A2B434D8A2B438380B6
:1059A00004838D684563028470BD000000000140DF
:1059B00000040140C16270474163704781637047D2
:1059C000C16370470164704700220288184B9842F7
:1059D0000ED0184B98420BD0B0F1804F08D0164B28
:1059E000984205D0154B984202D0154B984204D1ED
:1059F0004FF68F731A404B881A43124B984207D0C8
:105A0000114B984204D04FF6FF431A400B891A43BA
:105A100002804B68C3620B880385054B984202D015
:105A2000044B984201D18B7A03860123838270470D
:105A30000000014000040140000400400008004054
:105A4000000C0040001000400014004010B540F26F
:105A50002441104800F044FAD8B100210E48FDF767
:105A6000F7F80D48FDF7B6F9022806D10B48FDF707
:105A7000FDF920210A48FDF75BFD14210648FDF7DA
:105A8000D9F901210448FDF7E3F80248808801486C
:105A9000008810BD001001404064024062080020F0
:105AA0000004024010B586B0044601210220FEF732
:105AB000FFFE01211020FEF71BFF00208DF81600CD
:105AC00001208DF8170002208DF815008DF81400C4
:105AD0004020049004A91A48FDF7B6FC80200490E9
